:020000040800F2
:10000000284300205D020008771D000899160008AB
:10001000751D00085508000819240008000000009C
:10002000000000000000000000000000A101000826
:100030005708000800000000F5010008111E000824
:1000400077020008770200087702000877020008AC
:10005000770200087702000877020008770200089C
:10006000770200087702000877020008770200088C
:10007000770200087702000877020008770200087C
:10008000770200087702000877020008770200086C
:10009000770200087702000877020008770200085C
:1000A000770200087702000877020008770200084C
:1000B000770200087702000877020008770200083C
:1000C000770200087702000877020008770200082C
:1000D00077020008012400080D24000877020008B8
:1000E000770200087702000877020008770200080C
:1000F00077020008770200087702000877020008FC
:1001000077020008770200087702000877020008EB
:100110007702000877020008091F0008770200082C
:1001200077020008770200087702000877020008CB
:1001300077020008770200087702000877020008BB
:1001400077020008770200087702000877020008AB
:10015000770200087702000877020008770200089B
:10016000770200087702000877020008770200088B
:1001700077020008770200087702000800000000FC
:100180007702000877020008DFF810D000F050FB7B
:100190000048004735340008AFF3008028430020B2
:1001A0002B4B19680868B0E8F04F80F30988BFF35B
:1001B0006F8F4FF0000080F311887047000000003F
:1001C00006480068006880F3088862B661B6BFF32D
:1001D0004F8FBFF36F8F00DF00BF00BF08ED00E05F
:1001E000DFF80C00016841F470010160704700BF46
:1001F00088ED00E0EFF30980BFF36F8F144B1A68AE
:100200001EF0100F08BF20ED108A20E9F04F10609B
:1002100008B44FF0500080F31188BFF34F8FBFF345
:100220006F8F04F00FFB4FF0000080F3118808BCC3
:1002300019680868B0E8F04F1EF0100F08BFB0EC66
:10024000108A80F30988BFF36F8F704700BF00BF2B
:1002500030000020EFF3058070470000064880471B
:1002600006480047FEE7FEE7FEE7FEE7FEE7FEE79B
:10027000FEE7FEE7FEE7FEE7B51E0008890100087D
:100280002DE9F05F0546002092469B4688460646CB
:10029000814640241BE0284641464746224600F05E
:1002A00018FA53465A46C01A914110D311461846BF
:1002B000224600F0FFF92D1A67EB01084F4622464F
:1002C0000120002100F0F6F917EB00094E41201E35
:1002D000A4F10104DFDC484631462A464346BDE826
:1002E000F09F40EA01039B0703D009E008C9121FF1
:1002F00008C0042AFAD203E011F8013B00F8013BE0
:10030000521EF9D27047D2B201E000F8012B491E0B
:10031000FBD270470022F6E710B513460A460446A2
:100320001946FFF7F0FF204610BD421C10F8011BD4
:100330000029FBD1801A704730B5044600200346DF
:1003400000E05B1C934203D2E05CCD5C401BF8D024
:1003500030BD2DE9FE4F804681EA0300C00F0C46F8
:10036000009021F0004123F00045B8EB0200A941C4
:1003700005D24046214690461C460B46024623F0D5
:100380000040104347D0270DC7F30A00C3F30A51BA
:100390000290401A019040286BDAC3F3130040F436
:1003A000801B0098924620B10023D2EB030A63EB36
:1003B0000B0B01985946C0F14002504600F07AF903
:1003C00006460D4650465946019A00F092F910EB48
:1003D00008006141002487EA115284EAE7731A4356
:1003E00040D0009A62B3019A012A4FEA075215DC05
:1003F000001B61EB02014FF0004202EA0752CDE917
:100400000042001C41F5801132462B4600F092F963
:1004100003B0BDE8F08F40462146F9E7001B61EBD1
:100420000201001C41F5801300185B412018A2F561
:10043000001747EB030140EAD570B6196D4111E092
:100440006D084FEA360645EAC0754FEA0752001BB1
:1004500061EB0201001C41F5801149084FEA3000B0
:100460000019514132462B4603B0BDE8F04F00F071
:1004700052B90098012240000023D0EB020263EB46
:10048000E073009821464FEAE074B8EB000061EB9E
:100490000401E9E783F000435BE781F0004158E79E
:1004A0002DE9FE4F81EA030404F0004421F00041ED
:1004B00000944FF0000B23F0004350EA01045ED09B
:1004C00052EA03045BD0C3F30A54C1F30A552C4427
:1004D000A4F2F3340194A0FB0254C1F3130141F4DC
:1004E0008011C3F3130343F4801301FB024400FBA8
:1004F000034E840A970A44EA815447EA8357A4FBCF
:10050000076802958D0A05FB07854FEA932C04FBCB
:100510000C542705029D4FEA065847EA1637B5EBFB
:1005200008056EEB070C870E920E47EA811742EA28
:100530008312A7FB0201B6EB0B0164EB00042B0D49
:1005400043EA0C335E1844EB1C50DA465146E7FB95
:100550000201C5F313044FEA0B3343EA14534FEA85
:100560000432019C43EA0603A4F10C040294009CAB
:10057000CDE900B400F0DEF803B0BDE8F08F002054
:100580000146F9E72DE9F04D81EA030404F0004B40
:1005900021F0004514464FF0000A23F0004150EAD4
:1005A000050220D054EA01021DD0C5F30A570246C5
:1005B000C5F31303C1F31300C1F30A5640F48015C9
:1005C00043F48013A7EB0608101BD64608F2FD384B
:1005D00073EB050002D308F1010801E092185B41BA
:1005E000B8F1000F03DA00200146BDE8F08D0020CD
:1005F0004FF48011064684460EE0171B73EB050787
:1006000005D3121B63EB050306434CEA010C4908B2
:100610004FEA300092185B4150EA0107EDD152EAEF
:10062000030012D082EA040083EA0501084305D0E2
:10063000101BAB4106D20122002306E000224FF03E
:10064000004302E06FF0010253101AEB06004CEB7E
:10065000085110EB0A0041EB0B01BDE8F04D00F032
:100660005AB800F0004230F000400AD0C10D01F548
:100670006071C0F3160042EA0151C20840071143FD
:10068000704700200146704730B50B4601460020F8
:100690002022012409E021FA02F59D4205D303FA44
:1006A00002F5491B04FA02F52844151EA2F10102C5
:1006B000F1DC30BD202A04DB203A00FA02F10020F0
:1006C00070479140C2F1200320FA03F31943904090
:1006D0007047202A04DB203A21FA02F000217047FB
:1006E00021FA02F3D040C2F120029140084319469A
:1006F0007047202A06DBCB17203A41FA02F043EA82
:10070000E07306E041FA02F3D040C2F120029140CA
:1007100008431946704710B5141E73F1000408DA37
:10072000401C41F1000192185B411A4301D120F0B5
:10073000010010BD2DE9F04D92469B4611B1B1FA72
:1007400081F202E0B0FA80F220329046FFF7B2FF69
:1007500004460F4640EA0A0041EA0B0153465A4656
:10076000084313D0114653EA010019D0C8F14002E2
:100770005046FFF7AEFF05460E46504659464246E4
:10078000FFF798FF084305D0012004E020463946D2
:10079000BDE8F08D0020054346EAE0762C43374360
:1007A0000A986305E40AA0EB08000022FD0A44EA67
:1007B00047540A3002D500200146E9E70105101927
:1007C0006941DDE9084500196941BDE8F04DA2E73E
:1007D000C1F30A52C1F3130140F2FF3341F4801117
:1007E0009A4202DA00200146704740F233439A42AF
:1007F000A2F2334202DC5242FFF76BBFFFF75ABF4F
:1008000030B5041E71F1000404DB4FF00044404297
:1008100064EB0101141E73F1000405DB1C464FF06C
:100820000043524263EB0403994208BF904230BD3B
:10083000064C074D06E0E06840F0010394E807002D
:1008400098471034AC42F6D3FFF7A2FCD858000802
:10085000F8580008FEE7704790F83510022903D0D9
:100860008021416501207047052180F8351000681E
:10087000016821F001010160002070472DE9F84F67
:10088000DFF87CB100224FF001084FF0030A4FF06F
:100890000F090BF1040E00BF0B6808FA02F42340A5
:1008A000A3426ED14D68022D01D0122D0ED1D50874
:1008B00000EB850CDCF820505607F70E09FA07F616
:1008C000B5430E69BE402E43CCF820600668550043
:1008D0000F790AFA05FC07F0030726EA0C06AF4079
:1008E000374307604E68012E05D0022E03D0112E2B
:1008F00001D0122E0ED18668CF6826EA0C06AF40D2
:10090000374387604668A6430C79C4F300149440CB
:1009100034434460C6688C6826EA0C06AC40344315
:10092000C4604C68E40065D5364C256845F48045C4
:100930002560246822F0030504F480440094324CBE
:100940002E19D6F8084895072F0F09FA07F5AC437A
:100950002E4DA84201D1002524E02D4DA84201D101
:1009600001251FE02B4DA84201D102251AE02A4D96
:10097000A84201D1032515E0284DA84202D1042543
:1009800010E037E0264DA84201D105250AE0254DAB
:10099000A84201D1062505E0234DA84201D1072533
:1009A00000E00825BD402543C6F80858DBF80040A4
:1009B0005D464E689C43F60300D51C432C60DEF870
:1009C000004075464E689C43B60300D51C432C601E
:1009D0000B4D08352C684E689C43F60200D51C432D
:1009E0002C60074D0C352C684E689C43B60200D530
:1009F0001C432C60521C102AFFF44EAFBDE8F88F48
:100A0000003C0140443802400030014000000240F8
:100A10000004024000080240000C024000100240A6
:100A20000014024000180240001C02400AB181611B
:100A300070470904FBE70000014880687047000028
:100A40007800002002488168027811448160704774
:100A5000780000200B4810B5016841F40071016076
:100A6000016841F480610160016841F480710160B6
:100A7000032000F09BF8002000F006F800F03EF89C
:100A8000002010BD003C024010B5014688B0002295
:100A9000362000F06BF8362000F05CF81348002494
:100AA000016841F010010160006805A900F0100024
:100AB0000690684600F024F900F048F90C4940001F
:100AC000B0FBF1F10C480B4A491E026040F2E732DC
:100AD000C0E90324C0E9011400F038FB10B1012083
:100AE00008B010BD044800F04DFBF9E74038024063
:100AF00040420F00001000409801002010B5032074
:100B000000F054F8002211466FF00B0000F02EF8B0
:100B1000002211466FF00A0000F028F8002211466A
:100B20006FF0090000F022F800221146501F00F07B
:100B30001DF800221146101F00F018F800220F21A6
:100B4000901E00F013F800220F21BDE81040501E47
:100B500000F00CB800F01F02012191404009800014
:100B600000F1E020C0F8001170470000F0B40E4B17
:100B70001B680C46C3F30223C3F10705042D00D9FB
:100B80000425191D072901D2002300E0DB1E0126E0
:100B900006FA05F1491E214099409E40761E1640F6
:100BA0003143F0BC01F0E8B80CED00E0064900F07C
:100BB000070208684FF6FF03184040EA0220034A84
:100BC00010430860704700000CED00E00000FA05DB
:100BD0002DE9F0470E46050065D0DFF81481D8F8FE
:100BE0000000F7B200F00F00B04207D288F80070A2
:100BF000D8F8000000F00F00B04254D128683D4CF6
:100C0000810712D5400703D5206840F4E0502060EA
:100C10002878000703D5206840F4604020602068F1
:100C2000A96820F0F000084320602878C0072DD084
:100C3000304968680839012812D0022813D00328E7
:100C400011D00968890700292DDA216821F00301F4
:100C500001432160FFF7F0FE814641F2883A0EE041
:100C600009688903EFE709688901ECE7FFF7E4FE0B
:100C7000A0EB0901514502D90320BDE8F0872068A7
:100C8000696800F00C00B0EB810FEFD1D8F80010CC
:100C9000404601F00F01B14207D90770006800F02B
:100CA0000F00B04201D00120E7E72878400705D5C2
:100CB0002068E96820F4E0500843206028780007A5
:100CC00006D52068296920F4604040EAC100206010
:100CD00000F05CF82168084AC1F30311515CC84078
:100CE000064908600020FFF7CFFE0020C5E700009E
:100CF000003C024008380240AC4B000800000020D5
:100D00000F2202600C4A136803F003034360136868
:100D100003F0F0038360136803F4E053C3601268C8
:100D20004FF4E05303EAD20202610448006800F085
:100D30000F0008607047000008380240003C024085
:100D40000148006870470000000000200448054981
:100D500000680968044AC1F38221515CC8407047A9
:100D60000000002008380240BC4B00080448054938
:100D700000680968044AC1F34231515CC8407047B9
:100D80000000002008380240BC4B0008154810B590
:100D9000006810F00C02144813D04110042A0FD040
:100DA000082A0ED10F4C241F2268236802F03F024C
:100DB0005B0207D52068C0F38810A0FB010106E0A4
:100DC000084610BD2168C1F38811A1FB0001002372
:100DD000FFF756FA2168C1F30141491C4900B0FBF5
:100DE000F1F010BD083802400024F4002DE9F84F5E
:100DF000050076D02878DFF8F8B2BE4CC00749D09D
:100E0000DBF800105846C1F38101012908D00068C1
:100E1000C0F3810002280AD1201D0068400206D5D7
:100E20002068800336D568680028E2D032E0686820
:100E3000B0F5803F10D0B0F5A02F206810D020F47E
:100E400080302060206820F4802020606868A0B195
:100E5000FFF7F2FD06460CE0206840F48030F4E72E
:100E600040F480202060F7E7FFF7E6FD801B642850
:100E700073D820688003F7D50CE0FFF7DDFD064648
:100E800005E000BFFFF7D8FD801B6428F0D820687C
:100E90008003F7D42878DFF8608280074FF00009DC
:100EA0003ED5DBF80010584611F00C0F09D0006851
:100EB000C0F3810002280BD18D48001F006840025A
:100EC00006D42068800715D5E868012809D111E00B
:100ED000E868B8B10120C8F80000FFF7ADFD06468C
:100EE00005E002E1FFF7A8FD801B0228C0D82068BA
:100EF0008007F7D52068296920F0F80040EAC10092
:100F000020600DE0C8F80090FFF796FD064604E06B
:100F1000FFF792FD801B02281FD820688007F7D4B6
:100F20002878000722D5724E744869696C3671B111
:100F300001210160FFF780FD074604E0FFF77CFD1B
:100F4000C01B022809D830688007F7D50EE0C0F82A
:100F50000090FFF771FD074605E083E0FFF76CFDA9
:100F6000C01B02287ED830688007F7D42878400755
:100F700068D5DFF87CA100270AF1380ADAF800000A
:100F8000C0000BD4DAF8001041F08051CAF800100C
:100F9000DAF80000012700F080500090584E3068C9
:100FA000C00510D4306840F480703060FFF744FD15
:100FB000009005E0FFF740FD0099401A022851D843
:100FC0003068C005F6D54A4EA868683601280FD0AB
:100FD0000528306810D020F001003060306820F023
:100FE00004003060A868B8B1FFF726FD00900FE05C
:100FF000306840F00100F4E740F004003060F7E7AB
:10100000FFF71AFD0099411A41F28830814264D8F5
:1010100030688007F4D50EE0FFF70EFD009007E082
:10102000FFF70AFD0099411A41F28830814254D8F5
:1010300030688007F4D42FB1DAF8001021F0805125
:10104000CAF80010A869C0B3DBF80010C1F3810131
:1010500002294AD00228484607D0C8F86000FFF7A6
:10106000EBFC00E039E005463AE04746C8F860008E
:10107000FFF7E2FC064604E0FFF7DEFC801B0228D7
:101080002BD820688001F7D4D5E907010843A96A65
:101090001C4A490802EB01416A6A41EA821108438D
:1010A00095F82C1040EA01611148001F01600120F1
:1010B0003866FFF7C1FC054605E014E0FFF7BCFC0D
:1010C000401B022809D820688001F7D50BE000BF3B
:1010D000FFF7B2FC401B022802D90320BDE8F88FBD
:1010E00020688001F4D40020F8E70120F6E7000032
:1010F000083802400038024000004742800E474254
:10110000007000400000FFFF4FF0E0210428086954
:1011100003D020F004000861704740F00400FAE7B3
:1011200010B5401EB0F1807F01D3012010BD4FF0FB
:10113000E02460610F21601700F01EFE0020A06116
:1011400007202061002010BD7047704710B50400D3
:1011500003D094F8390010B107E0012010BD002041
:1011600084F83800204600F00CF8022084F839009A
:10117000211D206800F0CEFE012084F839000020F7
:1011800010BD70470168CA6842F00102CA60006879
:10119000016841F00101016000207047704770B59F
:1011A0000446006801694FF00005C943890715D45A
:1011B000C168C943890711D4E91E01610120207665
:1011C000206880698007204602D0FFF7E7FF04E02F
:1011D00000F098F8204600F096F82576206801691E
:1011E000C943490717D4C168C943490713D46FF0ED
:1011F00004010161022020762068806910F4407F9C
:10120000204602D0FFF7CAFF04E000F07BF820463A
:1012100000F079F8257620680169C943090716D4DA
:10122000C168C943090712D46FF0080101610420A5
:1012300020762068C0698007204602D0FFF7AEFF05
:1012400004E000F05FF8204600F05DF825762068A5
:101250000169C943C90617D4C168C943C90613D473
:101260006FF010010161082020762068C06910F439
:10127000407F204602D0FFF791FF04E000F042F8E3
:10128000204600F040F8257620680169C943C90767
:1012900008D1C168C943C90704D1891E016120462C
:1012A00000F032F820680169C943090609D4C16811
:1012B000C943090605D46FF0800101612046FFF79C
:1012C00043FF20680169C943490609D4C168C9437D
:1012D000490605D46FF040010161204600F01EF878
:1012E00020680169C94389060BD4C168C9438906CE
:1012F00007D46FF0200101612046BDE87040FFF780
:1013000024BF70BD7047704700680349884201D10F
:10131000FFF798BB7047000000100040704770470F
:1013200070B5026804461068D168536910F00F0F59
:1013300050D003F0010501F4907635435DD0C2072B
:1013400005D0CA0503D5E26B42F00102E263420711
:1013500005D5DA0703D0E26B42F00202E2638207AE
:1013600005D5DA0703D0E26B42F00402E26302071C
:1013700005D5DA0703D0E26B42F00802E263E26BC4
:10138000002A33D0800604D5880602D5204600F016
:1013900037FE20684069E16BC0F38010090700D474
:1013A00028B3204600F01EFE2068416949061AD580
:1013B000416921F040014161606BA0B11B490165A9
:1013C000606BFFF749FA002810D0606B016DBDE833
:1013D00070400847830610D58B060ED52046BDE821
:1013E000704000F00DBE2046FFF799FF70BD20460B
:1013F000FFF795FF0020E06370BD030606D50B06DE
:1014000004D52046BDE8704000F096BF4006F3D5F5
:101410004806F1D5D168204621F04001D160202155
:1014200084F8391000F037F970BD0000D51F0008AE
:1014300070B5040004D094F83900002510B106E01E
:10144000012070BD84F83850204600F023F8242095
:1014500084F839002068C16821F40051C160204639
:1014600000F014FE2068016921F4904101612068B8
:10147000416921F02A0141612068C16841F40051AD
:10148000C160E563202084F8390084F83A00002028
:1014900070BD000070B51E4E0168022201230324B6
:1014A00007251C4886B0B14215D11B490E6846F08D
:1014B00010060E60096801F01001059161028DE8C7
:1014C0003E006946FFF7DAF9002205212520FFF7E3
:1014D0004DFB252018E0114EB14217D10E49091FCE
:1014E0000E6846F400360E60096801F4003105917B
:1014F0000C218DE83E006946FFF7C0F90022032168
:101500002620FFF733FB2620FFF724FB06B070BD33
:1015100000100140000002404438024000440040F6
:1015200090F83A30202B1DD1D1B1CAB190F83830A3
:10153000012B17D081628285C2850021C1632222DE
:1015400080F83A2080F8381001684A6942F00102B8
:101550004A610068C16841F49071C1600020704721
:10156000012070470220704710B500681849884272
:101570002DD1184801780A0620D4421C1278682A16
:1015800001D04B0618D541F0400101F03F03124C49
:10159000491CC9B2E25401F03F0201700D2A0DD975
:1015A00041F08001017021464FF47A730E2201F15F
:1015B000500000F013F801E00021017005490648D1
:1015C0000122491CBDE810405030FFF7A9BF10BDF3
:1015D0000044004004000020D40000202DE9F8431E
:1015E000044690F839001F4616460D46202850D173
:1015F000A5B19EB194F8380001284AD0012084F8A2
:1016000038004FF00008C4F83C80212084F83900ED
:10161000FFF712FAA6848146E68426E00120BDE8A1
:10162000F883E08C401EE084A0684B46B0F5805FF4
:101630004FF000024FF080012046009703D000F0E9
:10164000ACFEE8B90DE000F0A8FEC8B92888216812
:10165000C0F308004860206908B16D1C05E0AD1CAE
:1016600003E0216815F8010B4860E08C0028D8D110
:101670004B46002240212046009700F08EFE08B124
:101680000320CCE7202084F8390084F8388000203B
:10169000C5E70220C3E77047FEE7000070B50E4CB7
:1016A0000025C4F880520D48016821F44001016012
:1016B000016841F4800101600948C0F8AC52022081
:1016C00004F5207401F01CFB01202060022001F0D1
:1016D00017FB256070BD00000080414200080240F9
:1016E000000041422DE9F0411D4886B0016841F0FB
:1016F00004010160016801F004010591016841F0F5
:10170000080101600068012200F00800154FD402B2
:10171000059021463846FFF789F9DFF84C80012211
:1017200011464046FFF782F91125CDE90045012415
:101730000326CDE9024669463846FFF79FF8CDE912
:101740000246CDE9004569464046FFF797F807484D
:10175000C0F880420648C0F8AC4206B0BDE8F0814F
:101760003038024000080240000C02400080414234
:101770000000414270B50E4C0025C4F880520D485F
:10178000016821F440010160016841F480010160B9
:1017900009480126C0F8AC62022004F5207401F06B
:1017A000AFFA2660022001F0ABFA256070BD0000A0
:1017B0000080414200080240000041422DE9F0470C
:1017C000824617480024016821F440010160016845
:1017D0000160144EDFF85090254627464FF001086F
:1017E000C6F88072022001F08BFAC6F8808260068B
:1017F000040ED9F82C0208B1641CE4B2012001F0F7
:101800007FFA6D1CEDB2082DEAD3BAF1000F04D0B7
:10181000FFF744FF2046BDE8F087FFF7ABFFF9E78D
:101820000008024000804142000041422DE9F0479B
:1018300006461548016821F440010160016841F441
:1018400080010160114D0027C5F88072DFF84080EB
:101850003C464FF00109F109C8F8AC127006060EBB
:10186000022001F04DFAC5F88092022001F048FAFA
:10187000C5F88072022001F043FA641CE4B2082C1F
:10188000E9D3BDE8F0870000000802400080414233
:101890000000414270B50F48016821F44001016029
:1018A000016841F4800101600B4C0120C4F8AC02D6
:1018B0000A4DC5F88002042004F52B7405F5207547
:1018C00001F01EFA00262660042001F019FA2E60AD
:1018D00070BD00000008024000004142008041420B
:1018E00070B50F48016821F440010160016841F4BE
:1018F000800101600B4C0020C4F880020A4DC5F83D
:10190000AC02042004F5207405F52B7501F0F8F9FC
:10191000012020602860BDE87040042001F0F0B98B
:101920000008024000804142000041422DE9F041A0
:1019300012480024016821F440010160016801603F
:101940000F4D0126C5F8AC62304601F0D9F90D4FB4
:10195000C7F88062012001F0D3F908E0641CE4B20A
:10196000FA2C04D9FFF7BCFF0120BDE8F081D5F8BF
:101970002C020028F2D1C7F88002F6E700080240E6
:10198000000041420080414210B5FFF7ABFE8021CC
:101990006B2000F0D6F8642001F0A5F900216B203F
:1019A00000F0CFF8032000F098F8002000F090F845
:1019B000322000F0AFF80021382000F0C2F80021FA
:1019C0006A2000F0BEF8FF21232000F0BAF8802141
:1019D000372000F0B6F8752000F026F804460146DE
:1019E00009A000F01BFD682C01D0012010BD21468C
:1019F00008A000F013FD00216C2000F0A2F83220B6
:101A000000F088F8002010BD4144443A2025640AC3
:101A1000000000006D7075363035305F61646472AF
:101A20003A2025640A00000010B50446FFF732FF93
:101A3000D020FFF7FBFEFFF779FF2046FFF7F6FE09
:101A4000FFF774FFFFF726FFD120FFF7EFFEFFF748
:101A50006DFF0020FFF7B2FE0446FFF741FF20466E
:101A600010BD00002DE9F0411D4614460F46064604
:101A7000FFF710FF7006000EFFF7D8FEFFF756FFC6
:101A800020B1FFF72DFF0120BDE8F0813846FFF7B8
:101A9000CDFEFFF74BFFFFF7FDFE012000EB4600F8
:101AA000C0B2FFF7C3FEFFF741FF09E0012C0DD0E4
:101AB0005FF00100FFF782FE641E05F8010BE4B23F
:101AC000002CF3D1FFF70CFF0020DDE70020F1E749
:101AD000C006010E1C2000F034B8C006010E1B2009
:101AE00000F02FB8BC2801D3012110E0622801D3F7
:101AF00002210CE02A2801D3032108E0142801D395
:101B0000042104E00A2801D3052100E006211A205F
:101B100000F017B810B504464FF47A70844201D92A
:101B2000044602E0042C00D20424B0FBF4F0401E72
:101B3000C1B2192000F005F86008BDE81040FFF7B9
:101B4000D1BF70B50C460546FFF7A4FED020FFF7C5
:101B50006DFEFFF7EBFE50B92846FFF767FEFFF773
:101B6000E5FE2046FFF762FEFFF7E0FE18B1FFF743
:101B7000B7FE012070BDFFF7B3FE002070BD2DE958
:101B8000F0411E4615460F460446FFF783FE6006E9
:101B9000000EFFF74BFEFFF7C9FE60B93846FFF7AE
:101BA00045FEFFF7C3FE00240CE0305DFFF73EFE6C
:101BB000FFF7BCFE20B1FFF793FE0120BDE8F081E6
:101BC000641CE4B2AC42F0D3FFF78AFE0020F5E7D4
:101BD00010B594B0142216496846FEF782FB002126
:101BE000684602F0A7F9134C114914222060143101
:101BF00005A8FEF776FB002105A802F09BF90C4929
:101C00006060142228310AA8FEF76BFB00210AA8A5
:101C100002F090F90649A06014223C310FA8FEF7AB
:101C200060FB00210FA802F085F9E06014B010BD40
:101C3000C44B000808000020F0B5224887B00024FB
:101C4000016841F080010160016801F080010591A7
:101C5000016841F001010160016801F00101059195
:101C6000016841F004010160016801F0040105917F
:101C7000016841F0080101600068134E00F008009F
:101C80004FF480650590002229463046FEF7CEFECF
:101C90000E4F002201213846FEF7C8FE00950125AF
:101CA000CDE90154694630460394FEF7E7FD0095FF
:101CB000CDE90154694638460394FEF7DFFD07B0CD
:101CC000F0BD00003038024000080240000C024025
:101CD0000D4810B50B4901604FF4E131416000211E
:101CE00081600C22C160C0E904128161C161FFF70B
:101CF0009FFB002805D0BDE810404D2103A000F057
:101D00008CBB10BD00100140E40000202E2E2F538C
:101D100072632F75736172742E6300000F4810B5E3
:101D20000D4901604FF416514160002181600C2281
:101D3000C160C0E904128161C161FFF779FB18B18C
:101D4000612107A000F069FBBDE8104001220849AD
:101D50000248FFF7E5BB00000044004024010020DA
:101D60002E2E2F5372632F75736172742E630000D1
:101D700005000020FEE770470907090E002806DA73
:101D800000F00F0000F1E02080F8141D704700F112
:101D9000E02080F80014704702F030FB0A2002F0C7
:101DA000B3F8F9E709A000F039FBFFF7EDFD02E019
:101DB0000DA000F033FB01F0A9FB0028F8D100BF13
:101DC00002F01DFB052002F09FF8F9E7BBB7BEB398
:101DD000CAFDBEDDB2C9BCAFBDF8B3CCCFB5CDB383
:101DE000C6F4B6AF0A000000B3F5CABCBBAFB3C9B6
:101DF000B9A60A0002F004FB322002F085F8F9E7E8
:101E00004FF47A7402F004FC204602F07DF8F9E702
:101E100002F086B830B5254893B00025016841F03E
:101E200080510160006800F08050119020480168E6
:101E300041F4804101600068022400F48040119068
:101E400001200090000401908001CDE906400820A7
:101E500008904FF4A870CDE9090404200B9068465F
:101E6000FEF7C4FF00B1FEE70CA90F2081E83100A6
:101E70004FF4A0500F904FF48050109005210CA803
:101E8000FEF7A6FE00B1FEE7FEF75AFF4FF47A71A7
:101E9000B0FBF1F0FFF744F90420FFF735F9002219
:101EA0000F21501EFEF762FE13B030BD40380240D5
:101EB000007000401048016841F4700101600F4853
:101EC000016841F0010101600C4A002108321160F3
:101ED00002680B4B1A400260031D0A4A1A6002682E
:101EE00022F48022026005480C3001600249580645
:101EF000803908607047000088ED00E0003802403B
:101F0000FFFFF6FE103000240148FFF748B900003B
:101F100098010020F0B50268234B244D244E254F34
:101F2000254C4FF0804C984209D0604507D0A8421C
:101F300005D0B04203D0B84201D0A04204D122F073
:101F4000700E4A6842EA0E0298421BD0604519D0D2
:101F5000A84217D0B04215D0B84213D0A04211D039
:101F6000164DA8420ED0164DA8420BD0154DA842D2
:101F700008D0154DA84205D0144DA84202D0144DEA
:101F8000A84203D122F44075CA682A4302608A68D5
:101F9000C2620A688262984201D0A04201D10969F6
:101FA000016301214161F0BD0000014000040040D7
:101FB00000080040000C00400004014000400140C7
:101FC000004401400048014000180040001C00404F
:101FD0000020004010B5806B0021C185C184FFF74F
:101FE0009EF910BD0168CA6822F49072CA60016847
:101FF0004A6922F001024A61202180F83A107047B4
:1020000010B590F83A10222901D0022010BD816845
:10201000B1F5805F11D00169002901681FD04968BE
:1020200001F07F03816A4A1C82620B70C18D491ED8
:102030000904090CC18518D026E00269816A002ACA
:102040000268526805D0D2B20A80816A491C816256
:10205000ECE7C2F308020A80816A891CF7E74A6844
:10206000816A4B1C83620A70E0E70168CA6822F447
:102070009072CA6001684A6922F001024A61202117
:1020800080F83A10FFF770FA002010BD2DE9F041FA
:1020900004460068016921F44052E168114301617E
:1020A0002168C86849F20C6290432369A268E56917
:1020B0001A4363692B431A430243CA602168486983
:1020C00020F44072A06910434861E1696425B1F5CC
:1020D000004F9748974A21684FF032083FD091420D
:1020E00001D081427CD1FEF741FE00EBC00101EB43
:1020F000001061688900B0FBF1F6FEF737FE00EBD7
:10210000C00101EB001061688900B0FBF1F0B0FB89
:10211000F5F06FF01801484306EB800108EB011061
:10212000B0FBF5F000F0F006FEF720FE00EBC0017A
:1021300001EB001061688900B0FBF1F0B0FBF5F035
:1021400006EB0016FEF712FE00EBC00101EB0010DB
:1021500061688900B0FBF1F7FEF708FED2E091421A
:1021600001D081423DD1FEF701FE00EBC00101EB41
:10217000001061684900B0FBF1F0B0FBF5F006011A
:10218000FEF7F4FD00EBC00101EB001061684900AF
:10219000B0FBF1F7FEF7EAFD00EBC00101EB001028
:1021A00061684900B0FBF1F0B0FBF5F06FF0180189
:1021B000484307EB800108EBC100B0FBF5F000F0ED
:1021C000F80006EB4006FEF7D1FD00EBC00101EB85
:1021D000001061684900B0FBF1F7FEF7C7FD3CE075
:1021E00055E0FEF7B3FD00EBC00101EB00106168A4
:1021F0004900B0FBF1F0B0FBF5F00601FEF7A6FDDB
:1022000000EBC00101EB001061684900B0FBF1F781
:10221000FEF79CFD00EBC00101EB00106168490076
:10222000B0FBF1F0B0FBF5F06FF01801484307EB9D
:10223000800108EBC100B0FBF5F000F0F80006EB00
:102240004006FEF783FD00EBC00101EB0010616862
:102250004900B0FBF1F7FEF779FD00EBC00101EB9F
:10226000001061684900B0FBF1F0B0FBF5F06FF0D1
:102270001801484307EB800108EBC100B0FBF5F003
:1022800000F00700216830448860BDE8F081FEF767
:102290005DFD00EBC00101EB001061688900B0FB3F
:1022A000F1F6FEF753FD00EBC00101EB0010616891
:1022B0008900B0FBF1F0B0FBF5F06FF01801484376
:1022C00006EB800108EB0110B0FBF5F000F0F00622
:1022D000FEF73CFD00EBC00101EB001061688900D6
:1022E000B0FBF1F0B0FBF5F006EB0016FEF72EFDAB
:1022F00000EBC00101EB001061688900B0FBF1F751
:10230000FEF724FD00EBC00101EB001061688900BD
:10231000B0FBF1F0B0FBF5F06FF01801484307EBAC
:10232000800108EB0110B0FBF5F000F00F00A9E709
:10233000001401400010014090F83910212901D00B
:10234000022070478168B1F5805F016A0BD04A1C9A
:102350000262026809785160C18C491E0904090CA7
:10236000C1840ED017E009880268C1F308015160EA
:1023700001690029016A02D0491C0162ECE7891C4D
:10238000FBE70168CA6822F08002CA600068C16881
:1023900041F04001C160002070472DE9F0419846AE
:1023A00017460E460446069D1DE0681C1BD02DB145
:1023B000FEF742FBA0EB0800A84214D92068C168D0
:1023C00021F4D071C1602068416921F001014161AF
:1023D000202084F8390084F83A00002084F838007E
:1023E0000320BDE8F0812068006836EA000004D0D0
:1023F0000020B842D9D00020F3E70120F9E700001F
:102400000148FEF78DBF0000E40000200148FEF700
:1024100087BF000024010020FEE7FEE70FB4054B54
:1024200010B503A9044A029800F0DAF810BC5DF870
:1024300014FB0000B9330008D000002002E008C8F7
:10244000121F08C1002AFAD170477047002001E02E
:1024500001C1121F002AFBD1704700002DE9FF5F68
:1024600082B00021DDE90430020DDDF840B0034305
:1024700018D044F61050A2F2FF32424315141198BE
:1024800001281FD0A5EB0B00401C5FEA000A4FF0AB
:1024900000064E4FDFF83891B046504615D5CAF1C8
:1024A000000413E0119801244AA3012801D16FEA26
:1024B0000B010298119AC0E90031C0E9024206B04E
:1024C000BDE8F09FCBF10000DFE704460021404A61
:1024D000491842EB0450CDE9001012E0E00707D0A4
:1024E00032463B4640464946FDF7DAFF804689467C
:1024F00032463B4610461946FDF7D2FF06460F46C8
:102500006410002CEAD1DDE90401DDE90023BAF111
:10251000000F06DAFDF7C4FF42464B46FDF7C0FF49
:1025200005E0FEF72FF842464B46FEF72BF804462F
:102530000E460022284BFEF763F903D84FF0FF3018
:10254000014607E00022254B20463146FDF701FFFA
:10255000FEF73EF9102409E0002C0ADB0A220023D2
:10256000FDF78EFE039B30321A55641E50EA0102BD
:10257000F2D1641C039AC4F111031444119A012A84
:1025800003D0012208430DD10AE0084304D0002003
:102590004FF0110B119072E7A3EB0B056D1E0DE0D0
:1025A0005B4504DD4FF0000205F1010504E003DAAC
:1025B0004FF00002A5F10105002AECD00298119914
:1025C000C0E90231C0E9004579E70000000014408D
:1025D0000000F03F300000000000F0430000E03F4A
:1025E0002DE9FF4F95B09A46884606460025EEE154
:1025F000252877D100242746F94A0121039400E0D9
:10260000044316F8013F203B01FA03F01042F7D1D2
:1026100030782A2811D06FF02F033078A0F13002E3
:10262000092A16D8039A44F0020402EB820203EB53
:1026300042021044761C0390EFE758F8042B0392F3
:10264000002A03DA504244F40054039044F0020498
:10265000761C30782E2816D116F8010F44F00404A9
:102660002A280DD06FF02F023078A0F13003092B0B
:1026700009D807EB870302EB4303C718761CF3E77F
:1026800058F8047B761C30786C280FD006DC4C2878
:1026900017D068280DD06A2814D104E0742810D00F
:1026A0007A280FD10DE044F400140AE044F48014B9
:1026B00001E044F440147278824202D104F580149F
:1026C000761C761C307866280BD013DC582877D01F
:1026D00009DC002875D04528F6D04628F4D04728D4
:1026E0001AD193E118E0632835D0642879D06528A1
:1026F00012D18BE1702873D008DC6728F1D06928EB
:102700006FD06E280DD06F2806D1ACE073282CD086
:10271000752874D0782853D05246179990476D1C6D
:1027200054E1C4F30250022809D003280DD0D8F890
:10273000001004280DD00D6008F1040846E1D8F817
:102740000010EA17C1E90052F6E7D8F800100D8032
:10275000F2E70D70F0E718F8041B8DF80010002068
:102760008DF80100EB46012003E058F804BB4FF060
:10277000FF3061074FF0000102D40DE009F10101C3
:102780008946B9420FDA8145F8DB1BF809100029A8
:10279000F4D108E009F1010189468142FADB1BF816
:1027A00009100029F6D103985346A0EB09072146EA
:1027B0003846179A00F080FA284400EB090507E034
:1027C00044E008E10DE01BF8010B524617999047D1
:1027D000B9F10109F7D2534621463846179AF2E07B
:1027E00039E00A21C4F302524FF0000B0091022A93
:1027F00006D058F8040BC117032A09D00AE023E0D9
:1028000008F1070020F00702F2E80201904605E017
:1028100000B2C117042A01D140B2C117002906DA5B
:102820000A460021404261EB02012D2202E022050E
:1028300004D52B228DF80420012203E0E20701D009
:102840002022F7E7914657E00A2100E010214FF0DF
:10285000000B00910BE010214FF0000B44F004043A
:102860000827009103E008204FF0000B0090C4F30C
:102870000252022A05D058F8040B0021032A08D07E
:1028800008E008F1070020F00702F2E80201904694
:1028900003E080B2042A00D1C0B24FF00009220741
:1028A0002AD53278702A07D0DDF800C08CF0100CE1
:1028B0005CEA0B0C05D00EE040228DF804200122CA
:1028C00008E050EA010306D030238DF804308DF87B
:1028D000052002229146009B83F0080353EA0B0374
:1028E0000AD150EA010201D1620705D530228DF8E4
:1028F00004204FF001097F1E3278582A04D039A2F3
:102900000C920CAA02920BE03BA2F9E75B46009AFC
:10291000FDF7B6FC0C9B9B5C029A521E0292137050
:1029200050EA0102F2D1029804A9081A00F1200B22
:10293000600702D524F4803400E001275F4502DD02
:10294000A7EB0B0000E0002000EB0B0100900398C8
:102950004944401A0390E00306D453462146179A8F
:10296000039800F0A9F90544002706E001A85246A3
:10297000C05D179990476D1C7F1C4F45F6DBE00347
:102980000CD553462146179A039800F095F9054453
:1029900004E030205246179990476D1C0099481E5C
:1029A00000900029F5DC08E0029802995246007870
:1029B000491C0291179990476D1CBBF10001ABF1C6
:1029C000010BF1DC5BE100F065F90544761C307821
:1029D00000287FF40DAE19B02846BDE8F08F000046
:1029E00009280100303132333435363738396162E5
:1029F00063646566000000003031323334353637A9
:102A0000383941424344454600000000600700D485
:102A1000062708F1070020F00700F0E802238046AF
:102A200003F0004C5FEA0C0001D097A009E02005FC
:102A300001D596A005E0E00701D095A001E0AFF236
:102A40004C001390307823F0004365280CD006DC4E
:102A5000452809D046281DD047287FD13BE066286D
:102A600018D067287AD136E00021112F01DB112020
:102A700000E0781CCDE9000104A90CA8FFF7EEFCEA
:102A8000DDE90D010C9A4FF0000B07F101091092DE
:102A900000914EE04FF000400097CDE9011004A9ED
:102AA0000CA8FFF7DBFCDDE90D020C9B0F994FF042
:102AB000000B91461093009211B9791C00EB0109AB
:102AC000B7EB090003D4C0F1FF3B07F10109A9EB03
:102AD0000700019042E0012F00DA01270021112FA9
:102AE00001DD112000E03846CDE9000104A90CA861
:102AF000FFF7B4FCDDE90D010C9A00914FF0000BDB
:102B0000B946109221070FD4009A4A4503DA91463C
:102B100001E0A9F10109B9F1010F05DD109AA9F150
:102B20000101515C3029F4D0B84202DA10F1040FEF
:102B300003DA0121CDE9011010E0002803DC834411
:102B4000A9EB000102E0411C494500DD8946A0EBEC
:102B50000B00401C01904FF000400290200705D46C
:102B60000198484502DB4FF0FF30019000208DF8BE
:102B70004B0002980DF14B07B0F1004F25D0022019
:102B80000C902B200D90029800280CDA4042029005
:102B90002D200D9007E00A210298FDF775FD3031D8
:102BA000029007F8011D0C99481E0C900029F2DCD8
:102BB00002980028EFD1791E0D980870307800F047
:102BC000200040F0450007F8020D11A8C01BC01DF1
:102BD00002901398007800B1012000EB09010198E0
:102BE00001EBE071029801440398401A401E0390E3
:102BF000E00306D453462146179A039800F05CF888
:102C000005441398007818B15246179990476D1CE7
:102C1000E00323D553462146179A039800F04CF859
:102C200005441BE0BBF1000F07DB0098584504DDAD
:102C30001098179910F80B0001E0179930205246B0
:102C4000904701980BF1010B401E05F10105019021
:102C500004D12E205246179990476D1CB9F10001FE
:102C6000A9F10109DEDC05E017F8010B52461799BE
:102C700090476D1C0299481E02900029F4DC5346CF
:102C80002146179A03989EE62D0000002B000000B5
:102C9000200000002DE9F041044600251E4617469D
:102CA000880404D405E039462020B0476D1C641E1A
:102CB000F9D52846BDE8F0812DE9F041044600250C
:102CC0001E469046C80301D5302700E0202788041F
:102CD00004D505E041463846B0476D1C641EF9D561
:102CE0002846BDE8F08170B5054600244FF47A7699
:102CF00003E0304600F004F8641CAC42F9D370BD28
:102D000070B54FF0E024002265690949A36909788C
:102D10004843A1699942FCD002D2A3EB010302E02F
:102D2000A5EB010633441A440B468242F1D370BD31
:102D30008400002008B560B120208DF80000282014
:102D40008DF8010030208DF8020038208DF8030046
:102D500004E0A32204216846FDF7D5FA6A4604215F
:102D600040F69E2001F0A6F800F0DCFD08BD000052
:102D70003EB5044602208DF80000CA208DF80100FF
:102D8000E3208DF8020009208DF803006A46042133
:102D9000682001F08FF8A3208DF80000610609D5A6
:102DA000C0218DF80110C8218DF80210C2218DF8C4
:102DB000031005E08DF801008DF802008DF8030086
:102DC00014F4C07F09D0C4218DF80410CC218DF8F3
:102DD0000510C6218DF8061005E08DF804008DF869
:102DE00005008DF806008DF808008DF807008DF8B5
:102DF00009006A460A2140F6A72001F05BF8A00707
:102E00004FF0D80503D020208DF8000001E08DF8A8
:102E100000506A46012140F6B62001F04BF8A006AA
:102E200001D5012000E0002000F08EF814F4C07FEE
:102E30001ED0E0050AD5B2208DF800008B208DF859
:102E40000100B6208DF802009B2009E0B0208DF82B
:102E5000000080208DF80100B4208DF80200902041
:102E60008DF803006A46042140F6A22001F022F802
:102E7000E1074FF40B6022D0F8218DF800106A466C
:102E8000012101F017F8FA21072000F0C5F9072009
:102E900000F090F9012000F0ADF9642000F06CFA28
:102EA0004FF4FA7000F078FAC821254800F04AF98A
:102EB000282000F05FF90A2000F06CF905E08DF899
:102EC00000506A46012100F0F5FFA00703D5D92084
:102ED0008DF8000001E08DF800506A46012140F2B3
:102EE0003D7000F0E7FF600701D5012000E0002001
:102EF00000F048F8E00601D5012000E00020FFF7CF
:102F000019FF104D44F00800688100F00BFD00200F
:102F1000A873600601D50620A87314F4C07F02D000
:102F2000A87B801DA87314F0140F02D0A87B10306A
:102F3000A873A00702D0A87B001DA87300203EBD87
:102F400009E3CA02183F00200EB54FF4976310B191
:102F500006A107C901E008A207CA8DE807006A4672
:102F60000921184600F0A6FF0EBD0000B8AAB38DD7
:102F7000B4980D355D000000B8AAAAAAB088C3C5F0
:102F8000C700000008B560B1C0208DF80000C22065
:102F90008DF80100C4208DF80200C6208DF80300D2
:102FA00004E08B2204216846FDF7ADF96A4604214E
:102FB00040F6982000F07EFF00F0B4FC08BD000051
:102FC000C8234FF48062024940F6F63000F0D4BBCB
:102FD000644C000830B5044613A285B007CA8DE8DA
:102FE00007004FF0FF35C82C16D8C820B0FBF4F10D
:102FF000491E080A8DF80C008DF80D1003AA022155
:1030000040F2162000F056FF30B96A460C2140F617
:10301000C12000F04FFF10B1284605B030BD054873
:1030200084810020F9E70000FEF2ABC4AAF1DFDFE3
:10303000BBAFDFDF183F00202DE9FF4104463CA075
:1030400004F00303006802903AA0006803903AA0DD
:1030500006683AA0056802A8C15C8DF80010C4F3A8
:10306000C101425C8DF80120C4F38112805C8DF8AF
:10307000020003A8C35C8DF80430415C8DF8051094
:10308000805C8DF806006A46032140F2264000F07D
:1030900011FF4FF0FF37E0BB01AA032140F22A40A5
:1030A00000F008FFA8BBCDE9006560070BD59DF8CF
:1030B000000040F001008DF800009DF8040040F091
:1030C00001008DF80400A0060BD59DF8010040F02A
:1030D00001008DF801009DF8050040F001008DF819
:1030E0000500E0050BD59DF8020040F001008DF8C9
:1030F00002009DF8060040F001008DF806006A46C7
:1031000003214FF4886000F0D5FE10B901AA032115
:1031100000E004E040F2314000F0CCFE18B1384647
:1031200004B0BDE8F081064804810020F8E7000003
:103130004CCD6C000CC92C00365676002646660035
:10314000183F00204FF47A7290FBF2F008B5484324
:10315000010E8DF80010010C8DF80110010A8DF898
:1031600002108DF803006A4604214FF4AE7000F09F
:10317000A1FE08BD0521B0FBF1F008B5010A8DF8EC
:1031800000108DF801006A4602214FF4AD7000F086
:1031900091FE08BD0521B0FBF1F008B5010A8DF8DC
:1031A00000108DF801006A4602214FF4AC7000F067
:1031B00081FE08BD08B500218DF80010C10702D0BE
:1031C00030218DF80010810705D59DF8001041F0E1
:1031D0000C018DF80010400705D59DF8000040F067
:1031E00003008DF800006A4601214FF4A47000F03E
:1031F00061FE08BD08B560B1042800D90420401E56
:103200008DF800006A46012140F24F1000F052FE96
:1032100008BD0120F3E7000070B504462DED028BD8
:1032200082B040074FF0FF357ED0B1F5C86F7BD834
:1032300000EE101AB8EE400ADFED460A01A880EE53
:10324000208A00F0B7F99DF80400022806D004286F
:1032500010D0082835D0102874D13EE09FED3E0AEA
:1032600028EE000ABCEEC00A10EE100A9FED3B0AE1
:1032700082B20AE09FED3A0A28EE000ABCEEC00ACC
:1032800010EE100A9FED370A82B228EE000A6E4651
:10329000BCEEC00A10EE100A81B2100A8DF80000D0
:1032A0008DF80120080A8DF802008DF80310E00760
:1032B00026D0324602214FF4EA7000F0FBFD98BBA5
:1032C00017E09FED290A28EE000ABCEEC00A10EEB6
:1032D000100A9FED260A82B2D7E79FED250A28EE55
:1032E000000ABCEEC00A10EE100A9FED220A82B25C
:1032F000CBE7B21C02214FF4927000F0DBFD98B9CD
:10330000A0070DD56A4602214FF4EC7000F0D2FD03
:1033100050B9B21C02214FF4947000F0CBFD18B9E3
:10332000600714D56A4600E00CE002214FF4EE700D
:1033300000F0C0FD30B9B21C02214FF4967000F0CD
:10334000B9FD20B1284602B0BDEC028B70BD002053
:10335000F9E70000000048430000804600004046B6
:10336000000000460000C0450000804500004045C8
:10337000000000450000C0440521B0FBF1F008B595
:10338000010A8DF800108DF801006A4602214FF401
:10339000EF7000F08FFD08BD0521B0FBF1F008B51E
:1033A000010A8DF800108DF801006A4602214FF4E1
:1033B000ED7000F07FFD08BD02490A685206FCD599
:1033C000486070470010014000B5024600F00DF85B
:1033D0000346D01C00F009F843EAC003901D00F03A
:1033E00004F843EA801080B200BD90F90010002973
:1033F00002DD4FF00000704702DA4FF00400704722
:1034000090F90110002902DD4FF00100704702DA47
:103410004FF00500704790F90200002802DD4FF0E0
:103420000200704702DA4FF0060070474FF00700C5
:1034300070470000FDF70EFBFEF7ECFCFEF7FCFB0F
:10344000FEF746FCFEF76AFC0BA0FEF7E7FF322210
:103450000CA11448FCF745FF1248FCF766FF82B246
:103460004FF47A730F491048FEF7B8F8FEF7B0FB37
:1034700000F051FDFEE70000CFB5CDB3C6F4B6AF06
:103480000A000000D5E2CAC7D2BBB8F6B4AEBFDAB4
:10349000D6D0B6CFBDD3CAD5BBD8CFD4CAB5D1E963
:1034A0000A00000064010020E40000200146002022
:1034B000842900D0C81C70472DE9F041124C20F03F
:1034C0000101002594F8240010B10020BDE8F0812E
:1034D000A07A4FF0FF3668B10840277C20748842FC
:1034E00000D0354641B1012000F05CFF00F01AFA2F
:1034F00038B127743046E9E7207D00B1012000F0A3
:1035000051FF2846E2E700008C00002010B5FEF7CE
:10351000E9F800F06DF888BB782000F06FFC10F03F
:10352000FF0F01D0012010BD7820FFF7C5FF10F07C
:10353000FF0F01D0022010BD642000F01FFC10F02E
:10354000FF0F01D0032010BDFFF73AFD10F0FF0F71
:1035500001D0042010BD1448FFF736FFFFF76CFDC3
:1035600010F0FF0F01D0052010BD40F27310FFF7DF
:10357000FFFB10F0FF0F02D0062010BD0FE064200B
:10358000FFF728FD10F0FF0F01D00720F5E701201D
:1035900000F01AFB10F0FF0F01D00920EDE703A0A7
:1035A000FEF73CFF0020E8E7C4000020696E697464
:1035B000206F6B000D494A7A42B1012A08D0022AD5
:1035C0000FD0032A0FD04FF0FF307047022200E0E7
:1035D00004220270C97C11B11106C90D01700020CE
:1035E00070470822F5E71022F3E700008C00002066
:1035F0002DE9FC414C4C80208DF8000020686B4682
:103600000122817C60680078FEF7B9FA4FF0FF373D
:10361000002832D16420FFF766FB00258DF80050AA
:1036200020686B460122817C60680078FEF7A7FA6B
:10363000002870D120686B460622817D6068007882
:10364000FEF710FA002866D19DF805009DF80310DA
:10365000C007400F01F0010140EA41019DF801005F
:103660004FF0010600F00100014309D0012905D007
:10367000022915D02DA0FEF7D1FE4CE0E67410E033
:1036800020686B460122C17860680078FEF7EAF98D
:1036900040BB9DF8000010F00F0020D0042822D07D
:1036A000E574FF2004F80A0F4FF6FF7104F8020CCE
:1036B00004F8010C6070A180A0712072A6702676BB
:1036C0006576E572A572E56025616561A576E576AA
:1036D000A5834FF4FA6000F0B3FA18B907E01D486B
:1036E000FEF79CFE17E01CA0FEF798FEC6E702203E
:1036F00000F0C8F978B92A2000F00AFB58B9322046
:1037000000F03CFB38B90020FFF7D6FE18B90020C6
:1037100000F0ECF910B13846BDE8FC81002000F063
:103720006DFB0020F8E700008C000020556E7375DB
:1037300070706F7274656420736F66747761726500
:103740002070726F64756374207265762025642E14
:103750000A0000008858000848616C662073656E96
:103760007369746976697479207061727420666F08
:10377000756E642E0A0000002DE9FF4FDFF894807B
:10378000064685B098F8250015460F464FF0FF39DC
:10379000B0BBAFB3002420E0301B102800DD1020A8
:1037A00080B283463A1901469246204600F082FBD9
:1037B00030BB6A465946204600F08AF800BB5046A6
:1037C0005A466946FCF7B8FD20B16FF0010009B018
:1037D000BDE8F08F04EB0B0084B2B442DCD3280ABE
:1037E0008DF810008DF81150D8F80000444604AB55
:1037F000817ED8F8040002220078FEF7C0F908B1F3
:103800004846E4E7012084F825000898E084002079
:10381000DDE700008C0000202DE9F84305464FF05D
:10382000FF39282844D80727284C00267DB10120DD
:1038300000F03CFA20208DF800004FF00108012D27
:1038400017D0052D18D88DF8018005201FE0002025
:1038500000F02CFA8DF800608DF8017020686B463E
:103860000222817C60680078FEF789F900BB26752A
:1038700029E08DF80160E8E7142D04D802208DF8C6
:1038800001000A2003E003208DF80100142000F05D
:103890003FFA9DF801006B4607EB80108DF80100A0
:1038A00020680222817C60680078FEF768F910B118
:1038B0004846BDE8F8830820A072267384F8148077
:1038C0000020FFF7F9FD0020F3E700008C00002046
:1038D000F8B516000D464FF0FF371FD0104CA17AF7
:1038E000E1B1010A8DF80010C0B28DF80100411954
:1038F00060684289914211D8216800786B46097E40
:103900000222FEF73CF948B92068EAB23346417D0D
:1039100060680078FEF7A6F8002800D03846F8BDA9
:103920008C000020F8B5564C4FF0FF36A07A0028E6
:103930007DD000258DF8005020686B460122C17BA8
:1039400060680078FEF71BF9002870D120686B468C
:103950000122417960680078FEF711F9002866D1EC
:1039600020686B460122017960680078FEF707F94C
:1039700000285CD194F82400E0B30C208DF80000FE
:1039800020686B460122017960680078FEF7F7F83D
:10399000002872D13220FFF7A6F9C0208DF8000070
:1039A000A07AC00702D0E0208DF8000020686B46A6
:1039B0000122017960680078FEF7E1F800285CD107
:1039C000607C18B102208DF8000001E08DF80050F5
:1039D00020686B460122C17B60680078FEF7CFF853
:1039E00028BB8DF8005020686B4601224179606841
:1039F00000783EE0FFE704208DF8000020686B4669
:103A00000122017960680078FEF7B9F878B9A07CE6
:103A100090B9A07AC0070FD05FF060008DF8000069
:103A200020686B46012201796068007800E024E09C
:103A3000FEF7A5F808BB01E04020EFE73220FFF7D2
:103A400052F9607C18B101208DF8000001E08DF87A
:103A5000005020686B460122C17B60680078FEF749
:103A60008EF850B92068064B012241796068103306
:103A70000078FEF784F8002800D03046F8BD00003A
:103A80008C00002038B5184C4FF0FF35A17A19B3DF
:103A9000022806D0042806D008280ED010281BD1F2
:103AA0000DE0002000E008208DF80000607A9DF80D
:103AB0000010B0EBD10F04D005E01020F4E718207F
:103AC000F2E7002038BD20686B460122C1796068AA
:103AD0000078FEF754F808B1284638BD9DF800007C
:103AE000C0086072EDE700008C000020F8B5354C8E
:103AF0000546A07CA84201D10020F8BD31484FF016
:103B0000FF366B46D0E900104FF0010209790078CA
:103B100035B3FDF7A7FF70BB9DF800006B4620F0A2
:103B200020008DF80000206801220179606800788B
:103B3000FEF725F8F8B90320FFF7D5F802208DF835
:103B4000000094F8220078B382202BE020686B46B6
:103B50000122017D60680078FEF711F858B92EE067
:103B6000FDF780FF38B9A07AC0079DF8000003D0A8
:103B700040F0200002E00CE020F020008DF8000072
:103B800020686B460122017960680078FDF7F7FF35
:103B900008B13046F8BD0320FFF7A5F894F82200DD
:103BA00000B180208DF8000094F823000028CDD0CB
:103BB0009DF8000040F030008DF80000C6E7A574C5
:103BC0009AE700008C00002038B51C4C94F82410B3
:103BD00081421DD0002500B394F82500D0B100200B
:103BE00000F0E0FB0020FFF781FFE08C00F0C6F85A
:103BF0008DF8005060686B46012200782321FDF7A4
:103C0000BEFF012084F8240000F0CCFBFFF78AFE01
:103C1000002038BD4FF0FF3038BD002000F0C2FB5F
:103C2000207C8DF8000060686B460122007823211B
:103C3000FDF7A5FF84F82450E8E700008C00002081
:103C400038B5194C4FF0FF35A17A31B3FA2809D0B5
:103C5000B0F5FA7F08D0B0F57A7F0FD0B0F5FA6FE3
:103C60001BD10DE0002000E008208DF80000207A34
:103C70009DF80010B0EBD10F04D005E01020F4E760
:103C80001820F2E7002038BD20686B4601228179B8
:103C900060680078FDF773FF08B1284638BD9DF8CD
:103CA0000000C0082072EDE78C00002038B5174CEA
:103CB000054694F82300A84201D1002038BD0DB17B
:103CC000302000E000208DF80000A07C28B19DF895
:103CD000000040F002008DF8000094F8220028B1A6
:103CE0009DF8000040F080008DF8000020686B46D1
:103CF0000122017D60680078FDF741FF10B14FF0AF
:103D0000FF3038BD84F82350D7E700008C00002036
:103D100038B5194C4FF0FF35A17A31B3BC2801D327
:103D2000012010E0622801D302200CE02A2801D3F0
:103D3000032008E0142801D3042004E00A2801D35A
:103D4000052000E006208DF80000E07A9DF80010C4
:103D5000884201D1002038BD20686B46012281785D
:103D600060680078FDF70BFF08B1284638BD9DF864
:103D70000000E072EEE700008C000020F8B51E4D58
:103D800004464FF0FF37A87A48B395F8240030BBBB
:103D9000287D4FF47A7648B164B1282C03D8E0B27C
:103DA000FFF73AFD26E00020FFF736FD042C05D290
:103DB000042406E00020FFF72FFDF9E7B44200D904
:103DC0003446B6FBF4F0401E8DF8000028686B46C0
:103DD0000122417868680078FDF7D1FE08B13846C5
:103DE000F8BD9DF80000401CB6FBF0F0E8814008EB
:103DF000FFF78EFF0020F8BD8C000020F8B50546C7
:103E000010F0700F4FF0000601D0012004E015B152
:103E10008DF8006002E040208DF80000244C6B46D5
:103E200001222068817C60680078FDF7A8FE4FF0D1
:103E3000FF3760BB9DF8000020F0400020738DF834
:103E40000060680602D404208DF80000A80605D49E
:103E50009DF8000040F002008DF80000E80605D44F
:103E60009DF8000040F001008DF80000280705D4FF
:103E70009DF8000040F038008DF8000020686B4687
:103E80000122C17C60680078FDF779FE10B1A6724E
:103E90003846F8BD25B1082D02D00020FFF706FFF7
:103EA000A57226753220FEF71EFF0020F8BD000027
:103EB0008C000020F8B516000D464FF0FF371FD0DC
:103EC000104CA17AE1B1010A8DF80010C0B28DF852
:103ED0000100411960684289914211D82168007837
:103EE0006B46097E0222FDF74AFE48B92068EAB215
:103EF0003346417D60680078FDF741FE002800D020
:103F00003846F8BD8C00002010B500B9012000F043
:103F100037FC002010BD10B500F058FC002010BD8B
:103F200010B500F06FFD012803D0BDE8104000F08F
:103F300027BD10BD3EB504460D46B0F90800FFF799
:103F4000B5FA02A9CDE90001208A2B4682B2D4E954
:103F5000001000F02BFD012801D000203EBD02988A
:103F60003EBD00002DE9F041184C0F460546E668BD
:103F70002068001D00F04DFB38B9206890F82C1027
:103F800001208840216981432161681C07D137B134
:103F90002168BDE8F0410E48091D00F072BB2068A1
:103FA0003544B5424560216805D2A06BBDE8F041BB
:103FB000091D00F04EBB606B091D00F04AFBA06AB2
:103FC000854200D2A562BDE8F081000030000020EB
:103FD000B03E00202DE9F041054600F05FFB2E4C7D
:103FE000A068401CA06020682C4F10B1606940B3ED
:103FF0002DE02560A068012829D1002606EB860067
:1040000007EB800000F017FB761C072EF6D3234841
:104010008C3000F010FB2148A03000F00CFB1F4852
:10402000B43000F008FB1D48C83000F004FB1B480A
:10403000DC3000F000FB19488C3060631430A06362
:1040400005E02068E96AC06A884200D82560606A95
:10405000401C6062E96A01202269884010432061A7
:1040600001EB810007EB8000291D00F00AFB00F046
:1040700035FB606900280CD02068E96AC06A884274
:1040800007D207494FF080500860BFF34F8FBFF34E
:104090006F8FBDE8F081000030000020D43D00208B
:1040A00004ED00E070B5114E114C17E000F0C2FBBA
:1040B0003068B8B100F018FD00F0F0FAF068C5689B
:1040C000281D00F0A6FAA068401EA0606068401E8F
:1040D000606000F003FB284600F00CF860680028E0
:1040E000E4D170BD00F000FDF8E700009C3E002028
:1040F0003000002010B50446006B00F003FB2046A2
:10410000BDE8104000F0FEBA10484FF4705142076D
:1041100006D0C01D0D4920F00700411AC1F57051AD
:104120000B4A00230144C2E900030839103A21F088
:10413000070111604B600B600B1AC0E9001393601C
:104140004FF000405360D06070470000D401002061
:1041500028000020074C4FF08056074DFFF7A2FFC4
:1041600020680128FAD92E60BFF34F8FBFF36F8FFD
:10417000F4E70000D43D002004ED00E02DE9F04715
:104180009A46DDE9098481466FF00303206B03EB57
:1041900082021044089D20F00706700707D05020C7
:1041A00080F31188BFF34F8FBFF36F8FFEE72318A3
:1041B0000A5C83F834200A5C12B1401C1028F6D344
:1041C000002784F84370072D00D30625E562C4E973
:1041D0001157201D00F03AFA04F1180000F036FAE9
:1041E0002461C5F107006462A061E76484F850703F
:1041F00052464946304600F0BFF82060B8F1000F43
:1042000001D0C8F80040BDE8F087000030B5114982
:1042100000E011460A688242FBD34B685C18844276
:1042200003D1406818444860084643681C1894420B
:1042300009D1084C103C2468A24209D052681A44A3
:1042400042600A6812680260814200D0086030BD96
:104250000460F9E7280000200648416B096829B18D
:10426000416BC968C9684968816270474FF0FF3186
:10427000FAE700003000002008484068401C4FF07A
:10428000500080F3118804D0BFF34F8FBFF36F8FBE
:10429000FEE7BFF34F8FBFF36F8FFEE76C00002088
:1042A0002DE9F0410546002700F0C4FA314E306890
:1042B00008B9FFF729FFF06805424BD1C5B30835AF
:1042C00068070ED005F00700C0F108000544680734
:1042D00007D0502080F31188BFF34F8FBFF36F8F4B
:1042E000FEE72DB37068854234D82248103001466D
:1042F0000C6801E020460C466168A94202D22168A0
:104300000029F7D131688C4224D007682168016008
:1043100060680837411B10290FD96019420708D07F
:10432000502080F31188BFF34F8FBFF36F8FFEE7EC
:1043300010E041606560FFF769FF61687068401ACE
:104340007060B268904200D2B060F0680143002013
:10435000C4E9000100F0C8FB780707D0502080F3C3
:104360001188BFF34F8FBFF36F8FFEE73846BDE86C
:10437000F08100001800002010B5031F4FF080747A
:104380001C601B1F21F001011960191F044B0B60F9
:1043900014390A60091F6FF0020244380A6010BD28
:1043A00079420008F8B5144C0146224694F824607E
:1043B000D2E9000200235D1E56B179B1022111E05D
:1043C000C17B10786B460122FDF7D9FB68B90EE07E
:1043D000A67A56B111B1617C61B902E08DF8003066
:1043E000EEE701218DF80010EAE72846F8BD9DF8B8
:1043F000000060740020F8BD8C00002070477047FA
:104400002DE9F0416F4E4FF47A742DED028B307828
:1044100028B9234605226C496C48FDF7DFF830784F
:1044200000067DD532226AA16C48FBF75AFF6B4823
:10443000FBF77BFF82B2234668496948FDF7CEF857
:10444000684DB2EE048AA879010900EE101A2979A4
:104450006423B8EE400A01F00F02C0EE080A12FB16
:1044600003F36A7900F00F00140904EB840403EBF2
:10447000440302F00F021A4400EE102AB8EE400A7C
:1044800070EE800A00EE100AB8EE400ADFED568AA0
:10449000524C012780EE281A203CB7EB111F30EE5A
:1044A000810A84ED060A03D1B1EE400A84ED060AC2
:1044B00010EE100AFCF7D5F841EC100B4BA053ECB2
:1044C000102BFDF7ABFF697A080900EE100AE879B6
:1044D0006423B8EE400A00F00F02C0EE080A12FB97
:1044E00003F32A7A01F00F014FEA121C0CEB8C0C3B
:1044F00003EB4C0302F00F021A4400EE102AB7EB54
:10450000101FB8EE400A70EE800A00EE101AB8EEE6
:10451000400A80EE281A30EE810A84ED050A00E098
:104520004CE003D1B1EE400A84ED050A10EE100A0A
:10453000FCF797F841EC100B2FA053EC102BFDF774
:104540006DFF297B080900EE100AA87A6423B8EEF3
:10455000400A00F00F02C0EE080A12FB03F3EA7AE9
:1045600001F00F01150905EB850503EB450302F08A
:104570000F021A4400EE102AB7EB101FB8EE400AE3
:1045800070EE800A00EE101AB8EE400A80EE281A8B
:1045900030EE810A84ED070A03D1B1EE400A84EDC2
:1045A000070A10EE100AFCF75CF841EC100B15A09E
:1045B00053EC102BFDF732FF00203070BDEC028B66
:1045C000BDE8F081040000208500002024010020C7
:1045D00009D5FDD4DACAE4B3F60A0000E43E0020AF
:1045E000E4000020D40000200000C842726F6C6C10
:1045F0003D25660A0000000050697463683D256629
:104600000A00000048656164696E673D25660A001E
:104610007047D0E9013201699A60D0E901235A60FC
:104620004A68824201D182684A60002202610868B9
:10463000401E0860704700F108014FF0FF32C0E9EA
:104640000112C16001610021016070470021016118
:10465000704730B50B685A1C02D000F1080202E026
:10466000026904E02246546825689D42FAD95368DD
:104670004B6099608A60516008610168491C016063
:1046800030BD42684A6093688B609368596091605E
:1046900008610168491C016070470000502080F3E8
:1046A0001188BFF34F8FBFF36F8F0A494868401CD2
:1046B000486001280CD10848006810F0FF0F07D0AF
:1046C000502080F31188BFF34F8FBFF36F8FFEE749
:1046D000704700006C00002004ED00E008494868C5
:1046E00028B1401E486001D180F3118870475020E6
:1046F00080F31188BFF34F8FBFF36F8FFEE7000089
:104700006C00002070B5002827D0144DA0F10804DB
:104710006168E868014207D1502080F31188BFF337
:104720004F8FBFF36F8FFEE722683AB1502080F3BE
:104730001188BFF34F8FBFF36F8FFEE78143616036
:1047400000F078F860686968084468602046FFF700
:104750005DFDBDE8704000F0C7B970BD18000020D5
:1047600006484FF47A710068B0FBF1F14FF0E02099
:10477000491E4161072101617047000000000020CF
:1047800010B5020014D00F48006B38B1502080F3F0
:104790001188BFF34F8FBFF36F8FFEE700F04AF829
:1047A00000211046FFF7DEFB00F09EF9002807D13C
:1047B00005494FF080500860BFF34F8FBFF36F8FF4
:1047C00010BD00003000002004ED00E01CB51548CD
:1047D0000024CDE900402346802213A1144800F0B4
:1047E000E5F8012809D0401C1AD1502080F3118827
:1047F000BFF34F8FBFF36F8FFEE7502080F3118818
:10480000BFF34F8FBFF36F8F06484FF0FF312C3847
:10481000816201214161C460BDE81C4000F040B8E4
:104820001CBD00005C00002049444C450000000015
:10483000554100080248016B491C016370470000A4
:10484000300000201448016B11B10121C161704793
:104850000021C1610169B1FA81F1C1F11F0101EBD0
:1048600081020E4951F822306BB101EB820101F156
:1048700008034A6852684A609A4201D152684A6005
:10488000D16801607047502080F31188BFF34F8FCB
:10489000BFF36F8FFEE7000030000020D43D002002
:1048A0001CB532480168324A914207D1502080F34A
:1048B0001188BFF34F8FBFF36F8FFEE700682C495D
:1048C000491E884207D1502080F31188BFF34F8FD3
:1048D000BFF36F8FFEE7274908780190FF2008702B
:1048E00008788DF800009DF800009DF8002000F089
:1048F000F000904207D0502080F31188BFF34F8F13
:10490000BFF36F8FFEE79DF800001B4A00F05000D8
:1049100010700720906005E09DF800305B008DF876
:104920000030401E9DF800301B06F5D4000200F454
:10493000E0609060019808700C482030016841F4F4
:1049400070010160016841F070410160FFF708FFEC
:1049500000205060FBF744FC0848016841F04041EA
:104960000160FBF72DFC00201CBD000000ED00E005
:1049700071C20F4100E400E06C00002034EF00E061
:1049800010B5502080F31188BFF34F8FBFF36F8FA6
:1049900000F046F818B104494FF08050086000203C
:1049A00080F3118810BD000004ED00E02DE9FF5FE9
:1049B0008346DDE90E87994616468A469000FFF742
:1049C0006FFC05001AD05420FFF76AFC040012D0D7
:1049D00025630021CDE90241CDE900874B463246EF
:1049E00051465846FFF7CAFB2046FFF7F3FA01206D
:1049F00004B0BDE8F09F2846FFF784FE4FF0FF307B
:104A0000F6E700000548416919B1006B18B10020B4
:104A100070470120704702207047000030000020DE
:104A20002DE9F0412E4C0027206B40B1A069401CBD
:104A3000A061E06900B101273846BDE8F081E66871
:104A4000761CE66013D1606B006838B1502080F3AB
:104A50001188BFF34F8FBFF36F8FFEE7606BA16BC1
:104A60006163A063206A401C2062FFF7F5FBA06A27
:104A7000DFF87080864209D3606B006880B1606B9C
:104A8000C068C568686886420DD2A0622068C06AA6
:104A900000EB800158F821000128CAD90127C8E796
:104AA0004FF0FF30F1E7281DFFF7B3FDA86A18B1FA
:104AB00005F11800FFF7ADFDE86A01212269814088
:104AC0001143216100EB800108EB8100291DFFF7F4
:104AD000D8FDE86A2168C96A8842CDD30127CBE7AF
:104AE00030000020D43D00202DE9F0472C4D00245B
:104AF0002746286B38B1FFF7D1FD286B401E28638D
:104B0000286B40B146E0502080F31188BFF34F8FEF
:104B1000BFF36F8FFEE7A968224E0120D1B3A6F143
:104B2000B40980463068E8B1F068C46804F1180040
:104B3000FFF76FFD201DFFF76CFDE06A2A6908FA98
:104B400000F11143296100EB800109EB8100211D77
:104B5000FFF797FDE06A2968C96A8842E2D3C5F881
:104B60001C80DFE70CB1FFF777FBAC6944B1464628
:104B7000FFF756FF00B1EE61641EF9D10020A86175
:104B8000E86938B10849012738070860BFF34F8F3B
:104B9000BFF36F8FFFF7A2FD3846BDE8F087000036
:104BA00030000020883E002004ED00E000000000FE
:104BB00000000000010203040607080900000000CD
:104BC0000102030468580008A51D00080000000049
:104BD00000000000800000005C580008991D0008DB
:104BE000FDFF000000000000800000007458000875
:104BF000F51D0008FDFF000000000000800000001F
:104C000080580008011E0008FDFF000000000000A1
:104C10008000000075191A0C6A231B1C1F20727477
:104C2000433B4138393A6B6C376F06246D6E700028
:104C30006800000476005401F7FD000183000000C5
:104C400000080000000100183200050000002041AB
:104C50000000D242295C0F3E9A99993E3333733F4C
:104C6000295C0F3E000070000000002400000002DC
:104C70000003000000650054FFEF0000FA80000B05
:104C800012820001030C30C30E8C8CE914D5400253
:104C900013710F8E3883F8833000F883258EF883E4
:104CA0003000F883FFFFFFFF0FFEA9D624000400A9
:104CB0001A8279A10000003CFFFF000000100000F4
:104CC00038836FA2003E03304000000002CAE309AF
:104CD0003E800000200000000000000040000000B6
:104CE00060000000000C0000000C186E000006922E
:104CF0000A16C0DFFFFF0256FD8CD377FFE1C49692
:104D0000E0C5BEAA00000000FFFF0B2B00001657F5
:104D1000000003594000000000001DFA00026C1D55
:104D2000000000003FFFDFEB003EB3B6000D22782D
:104D300000002F3C00000000001942B5000039A21D
:104D40000000B365D90E9FC91DCF4C343000000060
:104D5000500000003BB67AE80064000000C8000084
:104D600000000000100000001000FA921000225E07
:104D7000000D229F0001000000320000FF460000ED
:104D800063D400001000000004D6000004CC000032
:104D900004CC000000001072000000400000000081
:104DA00000000000000600020005000700000000EF
:104DB0000064000000000000000000050005006421
:104DC0000020000000000000000000000000400083
:104DD0000000030000000032F8980000FF650000AA
:104DE000830F0000FF9BFC0000000000000000009B
:104DF00000000000000000000000000000000000B3
:104E000000000000000000000000000000000000A2
:104E10000000100040000000000000060000B26A20
:104E2000000200000001FB830068000000D9FC00C4
:104E30007CF1FF830000000000650000006403E8CF
:104E400000640028000000250000000016A00000FB
:104E50000000100000001000002F0000000001F40E
:104E60000000100000280000FFFF4581FFFFFA72DC
:104E70000000000000000000004400050005BAC664
:104E8000004778A2000000010000000000000600BA
:104E9000000000140000254D002F706D000005AECD
:104EA000000C02D000000000000000000000000024
:104EB00000000000001B00000000000000000000D7
:104EC0000000000000640000000800000000000076
:104ED00000000000000000000000000000000000D2
:104EE00000000000000000000000000000000000C2
:104EF00000000000000000000000000000000000B2
:104F000000000000000000000000000000000000A1
:104F10000000000000000000000000000000000091
:104F200000000000001B0000000000000000000066
:104F3000000E000E00000AC700040000000000324E
:104F4000FFFFFF9C00000B2B00000002000000018F
:104F500000000064FFE50000000000000000000009
:104F6000000000000000000100000000000100003F
:104F700000000000000180000001800000018000AE
:104F8000002426D3000000000000000000060010EE
:104F90000096003C0000000000000000000000003F
:104FA000000000000C0A4E68CDCF770950166759F3
:104FB000C619CE82000000000000000000000000C2
:104FC00000000000000000000000000017D784006F
:104FD000030000000000000000000000C7938F9D48
:104FE0001E1B1C1900000000000000000000000053
:104FF000000000000000000000000000020318850F
:10500000000040000000000300000003000000005A
:105010000000000040000000000000000000000050
:105020000000000000000000000000000000000080
:105030000000000000000000000000000000000070
:105040000000000000000000677DDF7E72902E559A
:105050004CF6E688000000000000000000000000A0
:1050600000000000D8DCB4B8B0D8B9ABF3F8FAB39C
:10507000B7BB8E9EAEF132F51BF1B4B8B08097F19C
:10508000A9DFDFDFAADFDFDFF2AAC5CDC7A90CC920
:105090002C97F1A989264666B28999A92D557DB02C
:1050A000B08AA896365676F1BAA3B4B280C0B8A832
:1050B0009711B28398BAA3F0240844106418B2B9C7
:1050C000B49883F1A329557DBAB5B1A38393F000B9
:1050D0002850F5B2B6AA839328547CF1B9A38293E1
:1050E00061BAA2DADEDFDB819AB9AEF5606870F1F1
:1050F000DABAA2DFD9BAA2FAB9A38292DB31BAA294
:10510000D9BAA2F8DF85A4D0C1BBAD83C2C5C7B8E8
:10511000A2DFDFDFBAA0DFDFDFD8D8F1B8AAB38D16
:10512000B4980D355DB2B6BAAF8C96198F9FA70EA5
:10513000161EB49AB8AA872C547CBAA4B08AB69129
:10514000325676B28494A4C808CDD8B8B4B0F199D8
:1051500082A82D557D98A80E161EA22C547C92A4D0
:10516000F02C5078F184A898C4CDFCD80DDBA8FCB5
:105170002DF3D9BAA6F8DABAA6DED8BAB2B68696B0
:10518000A6D0F3C841DAA6C8F8D8B0B4B882A892BD
:10519000F52C548898F135D9F418D8F1A2D0F8F943
:1051A000A884D9C7DFF8F883C5DADF69DF83C1D8FF
:1051B000F40114F1A8824EA884F311D182F5D9929A
:1051C000289788F109F41C1CD884A8F3C0F9D1D918
:1051D0009782F129F40DD8F3F9F9D1D982F4C203F9
:1051E000D8DEDF1AD8F1A2FAF9A88498D9C7DFF877
:1051F000F8F883C7DADF69DFF883C3D8F40114F164
:1052000098A8822EA884F311D182F5D9925097885C
:10521000F109F41CD884A8F3C0F8F9D1D99782F128
:1052200049F40DD8F3F9F9D1D982F4C403D8DEDFFB
:10523000D8F1AD8898CCA809F9D98292A8F57CF16B
:10524000883ACF944A6E98DB6931DAADF2DEF9D84C
:105250008795A8F221D1DAA5F9F417D9F1AE8ED04D
:10526000C0C3AE82C684C3A88595C8A588F2C0F124
:10527000F4010EF18E9EA8C63E56F554F18872F4E4
:105280000115F19845856EF58E9E0488F142985A75
:105290008E9E068869F4011CF1981E1108D0F50451
:1052A000F11E970202983625DBF9D985A5F3C1DAFC
:1052B00085A5F3DFD88595A8F309DAA5FAD88292F7
:1052C000A8F578F1881A849F26889821DAF41DF3CE
:1052D000D8879F39D1AFD9DFDFFBF9F40CF3D8FAC7
:1052E000D0F8DAF9F9D0DFD9F9D8F40BD8F3879FE1
:1052F00039D1AFD9DFDFF41DF3D8FAFCA869F9F989
:10530000AFD0DADEFAD9F88F9FA8F1CCF398DB455D
:10531000D9AFDFD0F8D8F18F9FA8CAF38809DAAFE8
:105320008FCBF8D8F2AD978D0CD9A5DFF9BAA6F3DB
:10533000FAF412F2D8950DD1D9BAA6F3FADAA5F299
:10534000C1BAA6F3DFD8F1BAB2B68696A6D0CAF330
:1053500049DAA6CBF8D8B0B4B8D8AD84F2C0DFF142
:105360008FCBC3A8B2B68696C8C1CBC3F3B0B488FE
:1053700098A821DB718D9D71859521D9ADF2FAD860
:105380008597A828D9F408D8F28D29DAF405D9F23E
:1053900085A4C2F2D8A88D9401D1D9F411F2D8878E
:1053A00021D8F40AD8F28498A8C801D1D9F411D828
:1053B000F3A4C8BBAFD0F2DEF8F8F8F8F8F8F8F8C4
:1053C000D8F1B8F6B5B9B08A95A3DE3CA3D9F8D820
:1053D0005CA3D9F8D87CA3D9F8D8F8F9D1A5D9DF3E
:1053E000DAFAD8B18530F7D9DED8F830ADDADED8C0
:1053F000F2B48C99A32D557DA083DFDFDFB591A09A
:10540000F629D9FBD8A0FC29D9FAD8A0D051D9F8CF
:10541000D8FC51D9F9D879D9FBD8A0D0FC79D9FAE0
:10542000D8A1F9F9F9F9F9A0DADFDFDFD8A1F8F8A6
:10543000F8F8F8ACDEF8ADDE8393AC2C547CF1A820
:10544000DFDFDFF69D2CDAA0DFD9FADB2DF8D8A854
:1054500050DAA0D0DED9D0F8F8F8DB55F8D8A87823
:10546000DAA0D0DFD9D0FAF8F8F8F8DB7DF8D89CCC
:10547000A88CF530DB38D9D0DEDFA0D0DEDFD8A8AD
:1054800048DB58D9DFD0DEA0DFD0DED8A868DB70DB
:10549000D9DFDFA0DFDFD8F1A888902C547C98A852
:1054A000D05C38D1DAF2AE8CDFF9D8B087A8C1C1B0
:1054B000B188A8C6F9F9DA36D8A8F9DA36D8A8F941
:1054C000DA36D8A8F9DA36D8A8F9DA36D8F78D9DC1
:1054D000ADF818DAF2AEDFD8F7ADFA30D9A4DEF9BC
:1054E000D8F2AEDEFAF983A7D9C3C5C7F1889BA766
:1054F0007AADF7DEDFA4F8849408A797F300AEF244
:105500009819A488C6A39488F632DFF28393DB0946
:10551000D9F2AADFD8D8AEF8F9D1DAF3A4DEA7F130
:10552000889B7AD8F38494AE19F9DAAAF1DFD8A867
:1055300081C0C3C5C7A39283F628ADDED9F8D8A32E
:1055400050ADD9F8D8A378ADD9F8D8F8F9D1A1DA07
:10555000DEC3C5C7D8A18194F818F2B089ACC3C521
:10556000C7F1D8B8B4B09786A8319B069907AB9716
:1055700028889BF00C201440B0B4B8F0A88A9A2870
:105580005078B79BA82951792470594469386448E8
:1055900031F1BBAB88002C547CF0B38BB8A8042845
:1055A0005078F1B088B49726A85998BBABB38B025A
:1055B000264666B0B8F08A9CA82951798B29517982
:1055C0008A2470598B2058718A4469388B39406815
:1055D0008A6448318B30496088F1AC002C547CF0EF
:1055E0008CA804285078F1889726A85998AC8C028A
:1055F000264666F0899CA829517924705944693857
:10560000644831A98809205970AB11384069A8193C
:105610003148608CA83C415C207C00F18798198659
:10562000A86E767EA999882D557DD8B1B5B9A3DF2E
:10563000DFDFAED0DFAAD0DEF2ABF8F9D9B087C495
:10564000AAF1DFDFBBAFDFDFB9D8B1F1A3978E607E
:10565000DFB084F2C8F8F9D9DED89385F14AB18376
:10566000A308B5839A0810B79F10D8F1B0BAAEB0AE
:105670008AC2B2B68E9EF1FBD9F41DD8F9D90CF1CD
:10568000D8F8F8AD61D9AEFBD8F40CF1D8F8F8AD84
:1056900019D9AEFBDFD8F416F1D8F8AD8D61D9F485
:1056A000F4ACF59C9C8DDF2BBAB6AEFAF8F40BD8AF
:1056B000F1AED0F8AD51DAAEFAF8F1D8B9B1B6A37F
:1056C000839C08B9B1839AB5AAC0FD3083B79F10F7
:1056D000B58B93F20202D1ABDADED8F1B080BAAB6F
:1056E000C0C3B284C1C3D8B1B9F38BA391B609B416
:1056F000D9ABDEB0879CB9A3DDF1B38B8B8B8B8BE1
:10570000B087A3A3A3A3B28BB69BF2A3A3A3A3A327
:10571000A3A3A3A3A3F1B087B59AA3F39BA3A3DC90
:10572000BAACDFB9A3A3A3A3A3A3A3A3A3A3A3A3D7
:10573000A3A3A3A3D8D8D8BBB3B7F1AAF9DAFFD9EA
:10574000809AAA28B48098A720B79787A86688F07F
:105750007951F1902C870CA781976293F071716059
:1057600085940129517990A5F1284C6C870C9518E6
:105770008578A38390284C6C886CD8F3A28200F2C1
:1057800010A8921980A2F2D926D8F188A84DD9483C
:10579000D896A83980D93CD89580A839A68698D9BA
:1057A0002CDA87A72CD8A8899519A980D938D8A828
:1057B0008939A980DA3CD8A82EA83990D90CD8A864
:1057C000953198D90CD8A809D9FFD801DAFFD89516
:1057D00039A9DA26FFD890A80D8999A810809821B8
:1057E000DA2ED88999A83180DA2ED8A88696318009
:1057F000DA2ED8A8873180DA2ED8A88292F3418099
:10580000F1D92ED8A882F31980F1D92ED882ACF321
:10581000C0A28022F1A62EA72EA92298A829DAAC30
:10582000DEFFD8A2F22AF1A92E8292A8F23180A638
:1058300096F1D900AC8C9C0C30ACDED0DEFFD88C5D
:105840009CACD010ACDE8092A2F24C82A8F1CAF2DD
:1058500035F19688A6D900D8F1FF00005461736B2A
:10586000313030687A0000005461736B3230306838
:105870007A0000005461736B3230687A00000000D7
:105880005461736B35687A0050726F64756374206D
:1058900049442072656164206173203020696E6420
:1058A00069636174657320646576696365206973F3
:1058B0002065697468657220696E636F6D706174CC
:1058C00069626C65206F7220616E204D50553330D7
:1058D00035302E0A00000000F858000800000020B3
:1058E000D40000003C240008CC590008D40000205B
:1058F000544200004C2400080024F4000000000082
:105900000000000000000000000000000000000097
:105910000000000000000000000000000000000087
:105920000000000000000000000000000000000077
:105930000000000000000000000000000000000067
:105940000000000000000000000000000000000057
:105950000000000000000000000000000000000047
:105960000000000000000000AAAAAAAA000000008F
:10597000010000001000000000000000A868040002
:1059800004080000144C0008304C0008000000001F
:105990000000000000000000000000000000000007
:1059A0000000000000000000000000003C4C000867
:1059B00000000000000000000000000001000000E6
:0C59C000010000000100000000000000D9
:040000050800018965
:00000001FF
